:02000002B0004C
:1040000000400B0066500B00000006000C0005028B
:084010000401B41400000000DB
:04401800644D0B00E8
:10401C00034613F8012B002AFBD1181A01387047FC
:10402C0009480A49884208B505D0094A824202D09B
:10403C00121A00F0E7FD0748074A0021121A00F097
:10404C00EFFD014808BD00BF60E60320CC4F0B001C
:10405C00CCE60320CCE60320F0E7032070B5074E36
:10406C00074C00F00FFBA41BA4080025AC4200D1A8
:10407C0070BD56F8043B98470135F7E7844F0B00A9
:10408C00A84F0B0000F013B808B500F01FF8BDE8FE
:10409C00084000F0AFBA00F09BB900F0A1B900786D
:1040AC00B0FA80F04009704701230370704708B5DF
:1040BC0000F0F0FB4FF4165100F0E0FB00F076FD41
:1040CC00BDE808404FF4165100F060BC10B500F08C
:1040DC00E1FB03681B69984740B300F0DBFB036806
:1040EC00134C5B699847207000F060FD217800F05C
:1040FC000FFA00F05BFD03681B699847B0B100F044
:10410C0055FD03685B6998470A4B002814BF0122D0
:10411C0000221A7006D000F0BDFB0749BDE8104024
:10412C0000F005BA00F0B6FB0449F7E710BD00BF7C
:10413C00D9E60320D8E60320784D0B008D4D0B00FB
:10414C0010B5074B074A9A600024C3E900440320CA
:10415C0000F0B2F821460120BDE8104000F0B4B8E0
:10416C00CCE603200000FFFF08B5024B1B689B68E0
:10417C00019308BD6802030008B5024B1B68DB689D
:10418C00019308BD6802030008B5024B1B685B680D
:10419C00019308BD1802030008B5024B1B685B694C
:1041AC00019308BD1802030008B5024B1B685B6C39
:1041BC00019308BD4802030008B5024B1B685B69FC
:1041CC00019308BD6402030008B5024B1B68DB6851
:1041DC00019308BD3C02030008B5024B1B681B6928
:1041EC00019308BD3C02030008B5024B1B685B69D8
:1041FC00019308BD3C02030008B5024B1B689B6988
:10420C00019308BD3C02030008B5024B1B68DB6937
:10421C00019308BD3C02030008B5024B1B689B6A66
:10422C00019308BD3C02030008B5024B1B68DB6A16
:10423C00019308BD3C02030008B5024B1B681B6CC4
:10424C00019308BD3C02030008B5024B1B681B68B8
:10425C00019308BD4C02030008B5024B1B685B6858
:10426C00019308BD4C02030008B5024B1B681B6987
:10427C00019308BD4C02030008B5024B1B685B6937
:10428C00019308BD4C02030008B5024B1B689B69E7
:10429C00019308BD4C02030008B5024B1B68DB6997
:1042AC00019308BD4C02030008B5024B1B681B6A46
:1042BC00019308BD4C02030008B5024B1B685B68F8
:1042CC00019308BD2002030008B5024B1B68DB6A92
:1042DC00019308BD2002030008B5034B1B68D3F8FB
:1042EC008830019308BD00002002030008B5034B81
:1042FC001B68D3F89430019308BD00002002030022
:10430C0008B5024B1B685B68019308BD40020300B3
:10431C0008B5024B1B689B68019308BD4002030063
:10432C0008B5024B1B68DB68019308BD4002030013
:10433C0008B5024B1B681B69019308BD40020300C2
:10434C0008B5024B1B685B69019308BD4002030072
:10435C0008B5024B1B689B69019308BD4002030022
:10436C0008B5024B1B68DB69019308BD40020300D2
:10437C0008B5024B1B681B6A019308BD4002030081
:10438C0008B5024B1B681B6B019308BD4002030070
:10439C0008B5024B1B685B6B019308BD4002030020
:1043AC0008B5024B1B681B6C019308BD400203004F
:1043BC0008B5024B1B685B6C019308BD40020300FF
:1043CC0008B5024B1B68DB6B019308BD440203006C
:1043DC0008B5024B1B681B68019308BD1C02030047
:1043EC0008B5024B1B685B68019308BD1C020300F7
:1043FC0008B5024B1B681B6C019308BD1C02030023
:10440C0008B5024B1B685B6C019308BD1C020300D2
:10441C00002240681146FFF7ABBF002240681146EE
:10442C00FFF7B6BF40680022FFF7AABF4068002222
:10443C0081F00101FFF794BF002340681A4619462A
:10444C00FFF786BF002340681A461946FFF778BF6E
:10445C00002240681146FFF76BBF002240681146EE
:10446C00FFF756BF406800220221FFF759BF002317
:10447C0040681A46FFF744BF024B03225A60024AB7
:10448C001A607047DCE60320AC4D0B00054B022292
:10449C001A60054B054A9A600020C3E90000FFF73B
:1044AC000BBF00BFF0E60320E4E603200000FFFF93
:1044BC00024800230360FFF777BE00BFF4E6032039
:1044CC00F8B506460D468F180024BD420CD0336853
:1044DC0015F8011B9B6830469847031E01DB1C44F2
:1044EC00F3E7002C08BF1C462046F8BD13B5044664
:1044FC00084659B10191FFF78BFD23680199DB68E0
:10450C000246204602B0BDE81040184702B010BD6C
:10451C0003689B68184738B50D210546FFF7F8FF6F
:10452C000A2104462846FFF7F3FF204438BD38B56E
:10453C000546FFF7DBFF04462846FFF7ECFF204457
:10454C0038BD30B58BB00023012A8DF8243098BFCC
:10455C000A2209AC0D46B1FBF2F101FB125303F038
:10456C00FF03092B94BF30333733DBB2AA4204F874
:10457C00013DEFD92146FFF7B9FF0BB030BD00006C
:10458C00014B024A1A607047F8E60320E04D0B001D
:10459C00024B1A68024B1A60704700BF60E603209A
:1045AC00FCE60320014B00229A60704700E70320D1
:1045BC00014B1860704700BF64E6032008B50B4B35
:1045CC0043B100F067F903681B699847002801DDC7
:1045DC00AFF30080064B43B100F0E8FA03681B69A7
:1045EC009847002801DDAFF3008008BD00000000F3
:1045FC000000000008B5FFF7E1FFFFF7CDFD014B10
:10460C00186008BD58E703200548064A064908B556
:10461C00121A00F0F7FA054B054A1A6008BD00BFE4
:10462C0000F4032004F4032038500B0000F40320A2
:10463C001E1C279A07B5002300931A466FF07701CA
:10464C00FFF754FE03B05DF804FB000007B5438888
:10465C000A2B08D0502B0BD1094B1B684BB103B064
:10466C005DF804EB1847FFF7E5FF03B05DF804FBBA
:10467C00002300931A466FF07701FFF737FEF4E73B
:10468C0014E7032010B512480021FFF7B9FE114BB7
:10469C001A68114B9A42114B0CBF012200221A705E
:1046AC0001D0FFF7B1FFFFF76FFD044600F0C0FA31
:1046BC000B4B13B12046AFF3008000210848FFF7E5
:1046CC007FFEBDE8104007480021FFF705BE00BF84
:1046DC00BD450B0000F403201E1C279A10E7032095
:1046EC000000000059460B00704710B51821044615
:1046FC00FFF7D3FC204610BDF0B5037D062B8DB023
:10470C000E4600F104074FF0000412D000F108052A
:10471C0015F8011D0A223046FFF713FFAF4204447F
:10472C0019D0002CF4D02E213046FFF7F1FE0444B2
:10473C00EEE72F236A4639460A208DF80040FFF732
:10474C003BFD6846FFF764FC33680246DB6869464C
:10475C0030469847044620460DB0F0BD10B5054BC9
:10476C000446112240F8043B002100F059FA20467F
:10477C0010BD00BF084E0B000346074A10B543F8A6
:10478C00042B01F1100251F8044B43F8044B9142F5
:10479C00F9D10A781A7010BD084E0B0010B59DF8AF
:1047AC00084044EA032343EA024242EA016104233B
:1047BC004160037510BD000007B5064B0360CB7854
:1047CC0000938B784A780978FFF7E8FF03B05DF81F
:1047DC0004FB00BF084E0B004174704770477047D4
:1047EC0008B50021007CFFF74FFD40EAE07008BDE2
:1047FC0008B50121007CFFF747FD40EAE07008BDD9
:10480C0008B5007CFFF738FD20EAE07008BD08B55C
:10481C00007CFFF729FD20EAE07008BD13B50446C3
:10482C00007C0191FFF728FD0028019901DC607CD8
:10483C0020B1207CFFF730FD20EAE07002B010BD03
:10484C00007CFFF731BD10B514210446FFF725FCA1
:10485C00204610BD10B54FF47A730446084600216B
:10486C00C4E90113044B23600123207463741146C3
:10487C00FFF7EAFC204610BD1C4E0B00007C00220A
:10488C00FFF7EABC10B514220446002100F0C8F969
:10489C00204610BD10B50F4C88B003A8FFF7F2FFEF
:1048AC002178BFF35B8F11F001010FD120460191EC
:1048BC00FFF7F5FB019948B103AA0748FFF7CAFFB8
:1048CC002046FFF7F1FB054800F096F9024808B0C6
:1048DC0010BD00BF18E703201CE70320E9470B00BD
:1048EC0070474174704708B5007CFFF795FC20EACF
:1048FC00E07008BD08B5007CFFF76EFC20EAE070A4
:10490C0008BD08B5007CFFF777FC40EAE07008BDF5
:10491C0008B5007CFFF768FC40EAE07008BD007C3D
:10492C00FFF772BC37B5457C04462DB1207C03B033
:10493C00BDE83040FFF748BC007C0191FFF76CFCF0
:10494C0000280199F2DC284603B030BD10B51421C3
:10495C000446FFF7A2FB204610BD000010B54FF433
:10496C007A730446084611460022C4E90123044B1D
:10497C002360012320746374FFF75EFC204610BD96
:10498C004C4E0B00007C0023FFF74EBC0022FFF7BF
:10499C00F9BF002240681146FFF7CABC00224068EC
:1049AC001146FFF7E5BC002240681146FFF7F0BC4A
:1049BC0040680022FFF7E4BC4068002281F001014E
:1049CC00FFF7CEBC002340681A461946FFF7C0BC5F
:1049DC00002340681A461946FFF7B2BC0022406813
:1049EC001146FFF795BC406800220221FFF798BCE6
:1049FC00002340681A46FFF783BC0000024B0422D8
:104A0C005A60024A1A60704730E703207C4E0B0054
:104A1C00002340681A46FFF773BC4068002202214D
:104A2C00FFF77EBC002240681146FFF771BC0022E4
:104A3C0040681146FFF77CBC002340681A461946B3
:104A4C00FFF77EBC002340681A461946FFF780BC6E
:104A5C0040680021FFF7A4BC40680021FFF7A8BC08
:104A6C004068002281F00101FFF77ABC4068002207
:104A7C00FFF786BC002240681146FFF789BC002274
:104A8C0040681146FFF774BC2DE9F04395B014460D
:104A9C000D460746FFF762FE00211C220DA800916F
:104AAC0000F0BEF840230C9320466B460CAA002164
:104ABC00FFF762FB044600284BD1024601216868CF
:104ACC00FFF736FC0221804622466868FFF730FC6F
:104ADC00009E81462146002E3BD0002939D17368B7
:104AEC00022B03D00A2B11D0F669F4E7B8F1000FB2
:104AFC00FAD0716906A8043107ADFFF75DFE0FCD42
:104B0C003C1D0FC42B6823704146EDE7B9F1000F33
:104B1C00EAD07469102201A800F082F806238DF8FF
:104B2C00143001AD04F108031834186859682A468A
:104B3C0003C20833A3421546F7D101A906A807AD55
:104B4C00FFF71AFE0FCD3C1D0FC42B68237049468E
:104B5C00CAE70098FFF708FB384615B0BDE8F083AC
:104B6C00024B034A1A6000225A60704738E7032050
:104B7C00B84E0B007047000038B5044614252A4681
:104B8C00002100F04DF82580402507492581284655
:104B9C00258200F02FF804496060284600F02AF8BE
:104BAC00E060204638BD00BFEC4E0B0030B50E4D1A
:104BBC002978BFF35B8F11F0010487B011D128461F
:104BCC00FFF76DFA68B101A8FFF7D6FF01AA2146DD
:104BDC000648FFF7C3FE2846FFF766FA044800F0C4
:104BEC000BF8024807B030BD40E7032044E7032030
:104BFC00814B0B00FFF74FBA002301461A461846AB
:104C0C0000F044B80A44914200F1FF3300D17047E0
:104C1C0010B511F8014B03F8014F9142F9D110BDB9
:104C2C0002440346934200D1704703F8011BF9E795
:104C3C0038B5104B1D68AB6B0446B3B91820FFF7A1
:104C4C00C7FB0246A86320B90B4B0C484221FFF767
:104C5C00CFFB0B490B4BC0E900130B4B83600B23B1
:104C6C00838100210120C2E90401AB6B00221C618D
:104C7C005A6138BD64E60320ED4E0B00044F0B0067
:104C8C000E33CDAB34126DE6ECDE05002DE9F843A6
:104C9C00DFF8B8800646D8F800001F460D4691464E
:104CAC0000F056F8254B1C6834B9254C1C60254B7C
:104CBC0013B11B68C4F8883063681F2B07DDD8F864
:104CCC00000000F047F84FF0FF30BDE8F8834EB31A
:104CDC00D4F8880088B91C4B23B9D8F8000000F030
:104CEC0038F8F0E74FF48470FFF772FB0028F4D02B
:104CFC000023C0E94033C4F88800636840F823906F
:104D0C0001229A4000EB8301D0F800311343C0F824
:104D1C000031022EC1F8807002BFD0F80431134369
:104D2C00C0F804316368D8F800005A1C0233626082
:104D3C0044F8235000F00EF80020C6E7E8E7032003
:104D4C005CE7032000000000DD430B00C8E60320F5
:104D5C0070477047704700002D400B0069400B00F6
:104D6C0091400B0095400B000000000042757474DC
:104D7C006F6E2073746174652069732048494748CD
:104D8C0000427574746F6E2073746174652069735E
:104D9C00204C4F57000000000000000000000000F5
:104DAC007B440B0071440B0067440B005D440B000B
:104DBC0051440B0045440B005D4A0B00654A0B0047
:104DCC0039440B0031440B0027440B001D440B00ED
:104DDC00954A0B006170700025592D256D2D2564A9
:104DEC005425483A254D3A2553257A00617363744E
:104DFC00696D6500000000000000000005470B0015
:104E0C00F5460B00F7460B00000000000000000008
:104E1C00EB470B0053480B0029480B00CD440B000B
:104E2C001B480B00ED470B00FD470B004D480B00DA
:104E3C000D480B00E5470B000000000000000000CF
:104E4C00ED480B0059490B0031490B00CD440B00C8
:104E5C0001490B001D490B000F490B002B490B009E
:104E6C00EF480B00F3480B000000000000000000AE
:104E7C00FD490B00F3490B00E9490B009F490B005E
:104E8C00DD490B00D1490B005D4A0B00654A0B0054
:104E9C00C5490B00BD490B00B3490B00A9490B00D8
:104EAC00954A0B0000000000000000001D4A0B009A
:104EBC00274A0B00314A0B003B4A0B00454A0B00BA
:104ECC00514A0B005D4A0B00654A0B006D4A0B0002
:104EDC00794A0B00814A0B008B4A0B00954A0B0058
:104EEC00005245454E54206D616C6C6F6320737598
:104EFC0063636565646564002F6D6E742F776F72E4
:104F0C006B73706163652F776F726B737061636520
:104F1C002F4743432D31302D706970656C696E6578
:104F2C002F6A656E6B696E732D4743432D31302D9F
:104F3C00706970656C696E652D34385F3230323053
:104F4C00313132345F313630363138303634312FFE
:104F5C007372632F6E65776C69622F6E65776C69FF
:104F6C00622F6C6962632F7374646C69622F726157
:104F7C006E642E63000000004D410B0085440B0055
:104F8C0099440B00BD440B008D450B009D450B0057
:0C4F9C00B1450B00094A0B006D4B0B00E7
:104FA800040000001400000003000000474E5500F4
:104FB80009939F8EDC5235EDEBC54EBAC61076E5E7
:044FC80034083DD597
:104FCC00F84D0B0068E60320000000000000000014
:104FDC0000000000000000000000000000000000C5
:104FEC0000000000000000000000000000000000B5
:104FFC0000000000000000000000000000000000A5
:10500C000000000000000000000000000000000094
:10501C000000000000000000000000000000000084
:0C502C000000000000000000ECE7032082
:045038000000000074
:1050420000000102030405060708090A0B0C0D0EF5
:105052000F101112131415161718191A1B1C1D1EE6
:045062001F202800E3
:045066007856341232
:04000003B000401CED
:00000001FF
